:020000040000fa
:080000000002040000000000f2
:020000040000fa
:040008001a030000d7
:020000040000fa
:04000c001a030000d3
:020000040000fa
:040010001a030000cf
:020000040000fa
:040014001a030000cb
:020000040000fa
:040018001a030000c7
:020000040000fa
:04001c001a030000c3
:020000040000fa
:040020001a030000bf
:020000040000fa
:040024001a030000bb
:020000040000fa
:040028001a030000b7
:020000040000fa
:04002c001a030000b3
:020000040000fa
:040030001a030000af
:020000040000fa
:04003400d0020000f6
:020000040000fa
:040038001a030000a7
:020000040000fa
:04003c001a030000a3
:020000040000fa
:040040001a0300009f
:020000040000fa
:040044001a0300009b
:020000040000fa
:040048001a03000097
:020000040000fa
:04004c001a03000093
:020000040000fa
:040050001a0300008f
:020000040000fa
:040054001a0300008b
:020000040000fa
:040058001a03000087
:020000040000fa
:04005c001a03000083
:020000040000fa
:040060001a0300007f
:020000040000fa
:040064001a0300007b
:020000040000fa
:040068001a03000077
:020000040000fa
:04006c001a03000073
:020000040000fa
:040070001a0300006f
:020000040000fa
:040074001a0300006b
:020000040000fa
:040078001a03000067
:020000040000fa
:04007c001a03000063
:020000040000fa
:040080001a0300005f
:020000040000fa
:040084001a0300005b
:020000040000fa
:040088001a03000057
:020000040000fa
:04008c001a03000053
:020000040000fa
:040090001a0300004f
:020000040000fa
:040094001a0300004b
:020000040000fa
:040098001a03000047
:020000040000fa
:04009c001a03000043
:020000040000fa
:0400a0001a0300003f
:020000040000fa
:0400a4001a0300003b
:020000040000fa
:0400a8001a03000037
:020000040000fa
:0400ac001a03000033
:020000040000fa
:0400b0001a0300002f
:020000040000fa
:0400b4001a0300002b
:020000040000fa
:0400b8001a03000027
:020000040000fa
:0400bc001a03000023
:020000040000fa
:0400c0001a0300001f
:020000040000fa
:0400c4001a0300001b
:020000040000fa
:0400c8001a03000017
:020000040000fa
:0400cc001a03000013
:020000040000fa
:0400d0001a0300000f
:020000040000fa
:0400d4001a0300000b
:020000040000fa
:0400d8001a03000007
:020000040000fa
:0400dc001a03000003
:020000040000fa
:0400e0001a030000ff
:020000040000fa
:0400e4001a030000fb
:020000040000fa
:0400e8001a030000f7
:020000040000fa
:0400ec001a030000f3
:020000040000fa
:0400f0001a030000ef
:020000040000fa
:0400f4001a030000eb
:020000040000fa
:0400f8001a030000e7
:020000040000fa
:0400fc001a030000e3
:020000040000fa
:040100001a030000de
:020000040000fa
:040104001a030000da
:020000040000fa
:040108001a030000d6
:020000040000fa
:04010c001a030000d2
:020000040000fa
:040110001a030000ce
:020000040000fa
:040114001a030000ca
:020000040000fa
:040118001a030000c6
:020000040000fa
:04011c001a030000c2
:020000040000fa
:040120001a030000be
:020000040000fa
:040124001a030000ba
:020000040000fa
:040128001a030000b6
:020000040000fa
:04012c001a030000b2
:020000040000fa
:040130001a030000ae
:020000040000fa
:040134001a030000aa
:020000040000fa
:040208001a030000d5
:020000040000fa
:04020c001a030000d1
:020000040000fa
:040210001a030000cd
:020000040000fa
:040214001a030000c9
:020000040000fa
:040218001a030000c5
:020000040000fa
:04021c001a030000c1
:020000040000fa
:040220001a030000bd
:020000040000fa
:040224001a030000b9
:020000040000fa
:040228001a030000b5
:020000040000fa
:04022c001a030000b1
:020000040000fa
:040230001a030000ad
:020000040000fa
:04023400d0020000f4
:020000040000fa
:040238001a030000a5
:020000040000fa
:04023c001a030000a1
:020000040000fa
:040240001a0300009d
:020000040000fa
:040244001a03000099
:020000040000fa
:040248001a03000095
:020000040000fa
:04024c001a03000091
:020000040000fa
:040250001a0300008d
:020000040000fa
:040254001a03000089
:020000040000fa
:040258001a03000085
:020000040000fa
:04025c001a03000081
:020000040000fa
:040260001a0300007d
:020000040000fa
:040264001a03000079
:020000040000fa
:040268001a03000075
:020000040000fa
:04026c001a03000071
:020000040000fa
:040270001a0300006d
:020000040000fa
:040274001a03000069
:020000040000fa
:040278001a03000065
:020000040000fa
:04027c001a03000061
:020000040000fa
:040280001a0300005d
:020000040000fa
:040284001a03000059
:020000040000fa
:040288001a03000055
:020000040000fa
:04028c001a03000051
:020000040000fa
:040290001a0300004d
:020000040000fa
:040294001a03000049
:020000040000fa
:040298001a03000045
:020000040000fa
:04029c001a03000041
:020000040000fa
:0402a0001a0300003d
:020000040000fa
:0402a4001a03000039
:020000040000fa
:0402a8001a03000035
:020000040000fa
:0402ac001a03000031
:020000040000fa
:0402b0001a0300002d
:020000040000fa
:0402b4001a03000029
:020000040000fa
:0402b8001a03000025
:020000040000fa
:0402bc001a03000021
:020000040000fa
:0402c0001a0300001d
:020000040000fa
:0402c4001a03000019
:020000040000fa
:0402c8001a03000015
:020000040000fa
:0402cc001a03000011
:020000040000fa
:0402d0001a0300000d
:020000040000fa
:0402d4001a03000009
:020000040000fa
:0402d8001a03000005
:020000040000fa
:0402dc001a03000001
:020000040000fa
:0402e0001a030000fd
:020000040000fa
:0402e4001a030000f9
:020000040000fa
:0402e8001a030000f5
:020000040000fa
:0402ec001a030000f1
:020000040000fa
:0402f0001a030000ed
:020000040000fa
:0402f4001a030000e9
:020000040000fa
:0402f8001a030000e5
:020000040000fa
:0402fc001a030000e1
:020000040000fa
:040300001a030000dc
:020000040000fa
:040304001a030000d8
:020000040000fa
:040308001a030000d4
:020000040000fa
:04030c001a030000d0
:020000040000fa
:040310001a030000cc
:020000040000fa
:040314001a030000c8
:020000040000fa
:040318001a030000c4
:020000040000fa
:04031c001a030000c0
:020000040000fa
:040320001a030000bc
:020000040000fa
:040324001a030000b8
:020000040000fa
:040328001a030000b4
:020000040000fa
:04032c001a030000b0
:020000040000fa
:040330001a030000ac
:020000040000fa
:040334001a030000a8
:020000040000fa
:100400006f8020000e7f22000e0188000000000097
:10041000000020000000e000020032000001200087
:100420002002880014000700840007000000e0009c
:1004300003003a00403a200001002000020037008b
:100440000000200001002000810f70000100320038
:1004500014000700000020000000e000020032004d
:100460000000020000000000200302000000000065
:100470000040da000000fe004440a9000000200017
:100480000000e0000300320000002000a00188000e
:100490004440a800000006008a1f78008b1f7800e7
:1004a0000000060091018800800478000000eb0045
:1004b0001a003700e284440032a0b4009905ba0063
:1004c000e284440032a0b4009906ba00e2844400f9
:1004d00032a0b4000006eb00476fde00fd07b2005b
:1004e000636ce10003003a00ebff07000000eb0043
:1004f0000a003700606ce10004003a00005deb0088
:100500008b05e900fdff3e00040037006168e10053
:10051000010032000086eb000b00070019c7ba008b
:100520001905ba000e04e00003003a000a00e000da
:10053000e0ff3a0000000600fe07b2009e018800be
:100540008a047800f5ff3700395dba008b05e900b1
:100550000c003200295dba008b05e900080032006a
:100560000c00e00003003a00e284440032a0b40032
:10057000f5ff370019ddba008b05e900faff3a00f4
:100580008904e800e184440032a0b40000000600c1
:1005900036030400000000005403040000000000c3
:1005a0003600f800809fbe00829fbe00849fbe0080
:1005b000869fbe003400f80000002000a0018800e3
:1005c0000000fa0000082000100888008460a900dc
:1005d000204080008000400000802000008040001b
:1005e0001000780000000100204080008000e8003a
:1005f00010002800008060000000e00004003d00c2
:100600000000e900e1ff2f00008070000000e8001a
:10061000204088000080fa003400f9004f03be003b
:100620004f02be004f01be004f00be003600f90071
:10063000004006000040da000000fe000000050057
:020000040000fa
:100640000000fa0026000700603320000040880008
:1006500040352000104088000600fc001102800098
:10066000f141b20011028800ffff37000000fa00dc
:10067000701680004e00de006140600000c0ea009d
:10068000614060000080fb00610060004e00dd0002
:100690008116800001e0a100010070008016880032
:1006a0000080fa00000006000000fa00d01680006a
:1006b000004078006140600000c0ea0061406000d6
:1006c0000080fb0061006000e11680000100a100d5
:1006d00001007000e01688000080fa0000000600ab
:1006e0000000fa00cdc2a900d802a90005e1a800c7
:1006f00021088000f0fc2f00008060000050a00066
:10070000200888000421a90011028000f0f12f00c8
:10071000008060000070a000100288008460a900c2
:100720009460a80021058000f0ff28000080600090
:1007300000e0a000200588000008200010088800c4
:080740000080fa000000060031
:020000040000fa
:100748000008000006000000000000000000000093
:00000001FF
